:100000000C9463000C948B000C948B000C948B006C
:100010000C948B000C948B000C948B000C94AF0709
:100020000C948B000C9467070C948B000C948B0041
:100030000C948B000C948B000C948B000C948B0014
:100040000C94E3020C948B000C9494010C946E01BC
:100050000C948B000C948B000C948B000C948B00F4
:100060000C948B000C948B0000000008000201002F
:100070000003040700000000000000000000000072
:10008000240027002A000000000023002600290089
:1000900000000000250028002B00040404040404D0
:1000A0000404020202020202030303030303010227
:1000B00004081020408001020408102001020408F6
:1000C0001020AE0F7F0F11241FBECFEFD8E0DEBF90
:1000D000CDBF24E0A2E3B2E001C01D92A034B2077C
:1000E000E1F712E0A0E0B1E0E6E5F6E202C005903B
:1000F0000D92A233B107D9F710E0C2E6D0E004C0F8
:100100002197FE010E940311C136D107C9F70E9451
:10011000530C0C941E130C940000089580E090E0A2
:100120000895FC01538D448D252F30E0842F90E0FD
:10013000821B930B541710F0CF96089501970895E2
:10014000FC01918D828D981761F0828DDF01A80FDF
:10015000B11D5D968C91928D9F5F9F73928F90E001
:1001600008958FEF9FEF0895FC01918D828D981770
:1001700031F0828DE80FF11D858D90E008958FEFAD
:100180009FEF0895FC01918D228D892F90E0805C76
:100190009F4F821B91098F739927089583E393E002
:1001A0000E94C20021E0892B09F420E0822F0895EB
:1001B000FC01848DDF01A80FB11DA35ABF4F2C9104
:1001C000848D90E001968F739927848FA689B789D3
:1001D0002C93A089B1898C9180648C93938D848DAC
:1001E000981306C00288F389E02D80818F7D80837B
:1001F0000895EF92FF920F931F93CF93DF93EC013B
:1002000081E0888F9B8D8C8D981305C0E889F989D2
:10021000808185FD24C0F62E0B8D10E00F5F1F4FEF
:100220000F731127E02E8C8DE8120CC00FB607FC5F
:10023000FACFE889F989808185FFF5CFCE010E9448
:10024000D800F1CF8B8DFE01E80FF11DE35AFF4F6F
:10025000F0820B8FEA89FB898081806207C0EE897A
:10026000FF896083E889F98980818064808381E0E7
:1002700090E0DF91CF911F910F91FF90EF90089543
:10028000CF93DF93EC01888D8823C9F0EA89FB893D
:10029000808185FD05C0A889B9898C9186FD0FC034
:1002A0000FB607FCF5CF808185FFF2CFA889B98909
:1002B0008C9185FFEDCFCE010E94D800E7CFDF9172
:1002C000CF91089580E090E0892B29F00E94CE0024
:1002D00081110C94000008950E9400131F920F9248
:1002E0000FB60F9211242F933F934F935F936F9309
:1002F0007F938F939F93AF93BF93EF93FF9383E38A
:1003000093E00E94D800FF91EF91BF91AF919F9130
:100310008F917F916F915F914F913F912F910F90AE
:100320000FBE0F901F9018951F920F920FB60F924D
:1003300011242F938F939F93EF93FF93E0914303A7
:10034000F09144038081E0914903F0914A0382FDDA
:1003500012C0908180914C038F5F8F7320914D0369
:10036000821751F0E0914C03F0E0ED5CFC4F958F6B
:1003700080934C0301C08081FF91EF919F918F91F9
:100380002F910F900FBE0F901F901895833081F022
:1003900028F4813099F08230A1F008958730A9F0D7
:1003A0008830B9F08430D1F4809180008F7D03C013
:1003B000809180008F7780938000089584B58F7737
:1003C00002C084B58F7D84BD08958091B0008F7781
:1003D00003C08091B0008F7D8093B00008951F937B
:1003E000CF93DF93282F30E0F901E859FF4F849134
:1003F000F901E255FF4FD491F901E656FF4FC49140
:10040000CC23C9F0162F81110E94C601EC2FF0E019
:10041000EE0FFF1FE057FF4FA591B4918FB7F894EF
:10042000111105C09C91ED2FE095E92302C0EC91DC
:10043000ED2BEC938FBFDF91CF911F910895CF9358
:10044000DF9390E0FC01E255FF4F2491FC01E6565A
:10045000FF4F8491882361F190E0880F991FFC0180
:10046000E458FF4FC591D491FC01E057FF4FA5918F
:10047000B491611109C09FB7F894888120958223B7
:100480008883EC912E230BC0623061F49FB7F894FF
:100490003881822F809583238883EC912E2B2C9397
:1004A0009FBF06C08FB7F894E8812E2B28838FBF9B
:1004B000DF91CF91089561E08AE00E941F0261E020
:1004C00089E00E941F0261E088E00E941F0261E053
:1004D00087E00E941F0280EA8093800081E1809380
:1004E000810080E991E090938700809386000895D1
:1004F0003FB7F89480913B0290913C02A0913D025D
:10050000B0913E0226B5A89B05C02F3F19F0019679
:10051000A11DB11D3FBFBA2FA92F982F8827820F89
:10052000911DA11DB11DBC01CD0142E0660F771FD9
:10053000881F991F4A95D1F708958F929F92AF9285
:10054000BF92CF92DF92EF92FF926B017C010E94EB
:1005500078024B015C01C114D104E104F104F1F013
:100560000E947802DC01CB0188199909AA09BB090C
:10057000883E9340A105B10570F321E0C21AD1086D
:10058000E108F10888EE880E83E0981EA11CB11CDA
:10059000C114D104E104F10419F7DDCFFF90EF900D
:1005A000DF90CF90BF90AF909F908F9008952FB71E
:1005B000F8946091370270913802809139029091DD
:1005C0003A022FBF08951F920F920FB60F92112477
:1005D0002F933F938F939F93AF93BF938091370255
:1005E00090913802A0913902B0913A0230913602CE
:1005F00023E0230F2D3720F40196A11DB11D05C066
:1006000026E8230F0296A11DB11D20933602809388
:10061000370290933802A0933902B0933A02809146
:100620003B0290913C02A0913D02B0913E020196A6
:10063000A11DB11D80933B0290933C02A0933D020B
:10064000B0933E02BF91AF919F918F913F912F91B7
:100650000F900FBE0F901F9018950F931F93CF937D
:10066000DF938C01EB0180913502811105C081E09F
:10067000809335020E945B0217FF05C0119501951A
:10068000110981E001C080E0013991E0190714F0FF
:1006900000E911E010938B0000938A00882311F089
:1006A00061E001C060E088E00E94EF0180913502C6
:1006B000811105C081E0809335020E945B02D7FF63
:1006C00005C0D195C195D10981E001C080E0C13953
:1006D00091E0D90714F0C0E9D1E0D0938900C0932C
:1006E0008800882311F061E001C060E087E0DF91BD
:1006F000CF911F910F910C94EF0190912403E09101
:100700002503F0912603992311F0849101C0808183
:100710002FEB280F2A3110F4805E0895803249F4BF
:100720009F012F5F3F4F3093260320932503EF2B2C
:1007300031F708951F93CF93DF930E947D03C0E0AC
:10074000D0E01AE090ED980F9A30B8F41C9F900119
:100750001D9F300D1124E901C80FD11D87FDDA95C9
:10076000E0978091250390912603019690932603AC
:10077000809325030E947D03E5CFCE01DF91CF91C9
:100780001F9108952F923F924F925F926F927F92A6
:100790008F929F92AF92BF92CF92DF92EF92FF9291
:1007A0000F931F93CF93DF9300D000D01F92CDB74C
:1007B000DEB79D838C837A8369834B8380911F038B
:1007C000811112C081E080931F031092700081E2BA
:1007D0008093B0008BE08093B1008AEF8093B300E8
:1007E0001092B400539A7894109200012C813D81AC
:1007F00037FF06C03F773D832C834AE0342E02C08A
:100800003324339488E2389E802D112490E0EC81CB
:10081000FD81E817F90708F4AEC0F1E03F1209C006
:100820002C813D812131374220F0E0E1F7E2FD8368
:10083000EC83C32CD12CE12CF12C8C819D819695DD
:1008400087952C01612C712C2C813D814901A12CB3
:10085000B12CA701960160E472E48FE090E00E9461
:100860004110640D751D861D971DA50194010E9400
:10087000E410890132E0232E0F3F110501F1F8F059
:100880002394E22DF0E0EE0FFF1FEA5EFE4F208181
:10089000318140E050E060E072E18AE790E00E9440
:1008A000E410C701B6010E944110640D751D861D3C
:1008B000971DA50194010E94E4108901DDCF3AE063
:1008C000331209C08C819D8105966AE070E00E9418
:1008D000D0107D836C838C819D81883EE3E09E07F0
:1008E00069F029813A81DC010E94B51028EE33E0DD
:1008F00040E050E00E94E4103A8329831092700097
:100900008091B100887F282A2092B1000093B30023
:100910002B81203108F02FE080E190E0821B9109CB
:1009200002C0169507958A95E2F70093B4002981D5
:100930003A81309321032093200387B38FEF87BB45
:1009400081E0809370000F900F900F900F900F90A8
:10095000DF91CF911F910F91FF90EF90DF90CF909B
:10096000BF90AF909F908F907F906F905F904F90CF
:100970003F902F9008959D838C835BCF5F926F9201
:100980007F928F929F92AF92BF92CF92DF92EF921F
:10099000FF920F931F93CF93DF93FC012285338542
:1009A000232B09F492C06B01EC01F12C8C85F81615
:1009B000F0F40F2D10E08E859F85F801EE0FFF1FDC
:1009C000EC0DFD1D91838083EA85FB85E00FF11F0F
:1009D00061E080810E94EF018A859B85FC01E00F28
:1009E000F11F61E080810E941F02F394DFCF83E258
:1009F00090E00197F1F710E08C851817A8F4E12E2C
:100A0000F12CEA85FB85EE0DFF1D60E080810E94E0
:100A10001F028A859B85FC01EE0DFF1D60E0808131
:100A20000E94EF011F5FE8CF0E9478024B015C013A
:100A30000E947802AB01BC01481959096A097B0977
:100A40008E859F85A0E0B0E0481759076A077B07AD
:100A500008F03BC00E9478027B01E818F908612C7D
:100A60008C85681628F7062D10E0EA85FB85E00FD7
:100A7000F11F208130E0F901E859FF4F8491F9011D
:100A8000E255FF4F7490F901E656FF4F5490552000
:100A900071F081110E94C601E52DF0E0EE0FFF1FFD
:100AA000EA57FF4FA591B491EC917E2261F4000FBB
:100AB000111FF601E00FF11F80819181E816F90600
:100AC00010F4F182E0826394CBCFDF91CF911F913C
:100AD0000F91FF90EF90DF90CF90BF90AF909F90DD
:100AE0008F907F906F905F900895CF93DF93EC018C
:100AF00063EE71E00E943C0B8823A9F06AE67FEF69
:100B000086E990E00E942D0368EC70E080E090E0C0
:100B10000E949D0260E070E080E090E00E942D0362
:100B200080E28093330268EF71E0CE010E943C0BBB
:100B30008823A9F066E970E08AE69FEF0E942D0302
:100B400068EC70E080E090E00E949D0260E070E060
:100B500080E090E00E942D0380E280933302DF91D9
:100B6000CF910895FB018F3F11F0411105C040E086
:100B7000BF0188EE93E044C0813130F020EF280FB0
:100B8000203618F02FE501C020E0822F6CE00E9493
:100B9000C410382F54EF5303B0011124DB01A20F0E
:100BA000B11D9D011C9740F4220F331FD901AA5D8E
:100BB000BE4F2D913C9102C020E030E0873081F0A3
:100BC000082E02C0220F331F0A94E2F7823028F069
:100BD000C90105966AE070E00CC0C90190580CC0CC
:100BE000C90126E0880F991F2A95E1F7029665E072
:100BF00070E00E94D010CB01403108F04FE0BF01FF
:100C00000C94C2036F927F928F929F92AF92BF9289
:100C1000CF92DF92EF92FF920F931F93CF93DF93C8
:100C20009090090180912203882321F06091230391
:100C3000611116C07724739450ECA52E5DE5B52E96
:100C40006AE0662E74E0872EE0EDCE2EE7E0DE2E21
:100C5000F4E0EF2EF12C04EF11E0CFE0D0E015C06E
:100C600070E040E088EE93E00E94C20310922303FC
:100C70001FC18636D4F5813609F4A8C07CF58C33C3
:100C800009F460C08E3381F493940E947D03209117
:100C90002503309126032F5F3F4F30932603209387
:100CA0002503853631F752C0813209F08AC080921F
:100CB0000901D0920601C0920501F0920801E0926C
:100CC00007011093040100930301D0930201C09324
:100CD00001011092220344E0942ED7CF8336A1F174
:100CE0000CF477C000E092E076C08D36C1F194F448
:100CF000873691F174F18C3609F063C00E949A0333
:100D0000BC019093080180930701809105019091A7
:100D1000060150C08237C1F14CF48F3609F051C042
:100D20000E949A03982E80930901AFCF843779F1FE
:100D3000863709F046C00E949A039093020180937F
:100D40000101A3CF9A94A1CF00E01FC000E094E07E
:100D500042C000E095E03FC000E097E03CC00E9448
:100D60007D038C3619F41092220304C07092220382
:100D7000109223038091250390912603019690936E
:100D800026038093250381CF01E090E024C00E94D8
:100D90009A03BC01C5010E94D010669EC001679EE7
:100DA000900D112490930601809305016091070135
:100DB000709108010E94D0107093040160930301A8
:100DC00064CF109226031092250372C000E099E0D0
:100DD00002C000E09BE0192F8CE0989E100D1124BA
:100DE0000E947D03982F977F933259F480912503B9
:100DF00090912603019690932603809325031F5F0D
:100E0000EFCF8D3269F480912503909126030196EE
:100E1000909326038093250311500E947D03F1CF08
:100E2000C0910301D09104018153883058F4C091DE
:100E30000501D09106010E949A03BC01CE010E94D7
:100E4000D010EB017E01F694E7940E947D038E3270
:100E500061F48091250390912603019690932603D7
:100E600080932503CE0DDF1DEECFBE0180912203BE
:100E7000882339F0CE019695879580932303681BCC
:100E8000710940910101011102C0812F01C08FEF52
:100E9000DF91CF911F910F91FF90EF90DF90CF9056
:100EA000BF90AF909F908F907F906F900C94B20501
:100EB000DF91CF911F910F91FF90EF90DF90CF9036
:100EC000BF90AF909F908F907F906F9008951F92EA
:100ED0000F920FB60F9211242F933F934F935F936E
:100EE0006F937F938F939F93AF93BF93EF93FF93F2
:100EF00080912003909121039C012150310930936E
:100F0000210320932003892BC9F410927000789458
:100F10008091B100887F83608093B1008AEF8093D5
:100F2000B3001092B40081E080930001809125030A
:100F300090912603892B11F00E940206FF91EF91F8
:100F4000BF91AF919F918F917F916F915F914F91E1
:100F50003F912F910F900FBE0F901F9018951F92E9
:100F60000F920FB60F9211242F933F934F935F93DD
:100F70006F937F938F939F93AF93BF93EF93FF9361
:100F8000E0911D03F0911E030995FF91EF91BF9130
:100F9000AF919F918F917F916F915F914F913F9111
:100FA0002F910F900FBE0F901F9018958F929F92C8
:100FB000AF92BF92CF92DF92EF92FF920F931F9367
:100FC000CF93DF9320913202211104C168EF71E0C9
:100FD0000E943C0B882329F0CDE7D0E003E81FEF07
:100FE00004C0C3E8DFEF0DE710E029E3C22ED12CE7
:100FF000E12CF12C809117039091180307970CF0C6
:10100000E9C0809132028111E5C0BE01C8010E9491
:101010002D0366E970E080E090E00E949D0260E0B0
:1010200070E080E090E00E942D0364E170E080E0D9
:1010300090E00E949D020E94590ABC0180E090E06D
:10104000A70196010E9451102093190330931A03AF
:1010500040931B0350931C03CA01B9010E94050C65
:1010600065E771E083E393E00E94A70B8091190389
:1010700090911A03A0911B03B0911C030497A1093E
:10108000B1090297A105B105B8F465E070E080E010
:1010900090E00E949D020E94590ABC0180E090E00D
:1010A000A70196010E9451102093190330931A034F
:1010B00040931B0350931C038090190390901A03D4
:1010C000A0901B03B0901C03D501C4010197A10996
:1010D000B1090997A105B10508F054C081E08093DA
:1010E0003202E0911503F0911603EE0FFF1FE35B50
:1010F000FD4F81E090E0918380836BE072E083E3B9
:1011000093E00E94510CC501B4010E94050C61E8F6
:1011100071E083E393E00E94510CE0911503F0919C
:101120001603EE0FFF1FE35BFD4F60817181072EF9
:10113000000C880B990B0E94050C65E771E083E3B6
:1011400093E00E94A70B80911503909116030196DE
:1011500090931603809315030E94230A68EC70E0B5
:1011600080E090E00E949D020E94230A68EC70E0FB
:1011700080E090E00E949D020E94230A8DE480930B
:10118000340228C0C501B4010E94050C61E172E07F
:1011900083E393E00E94510C609117037091180350
:1011A000072E000C880B990B0E94050C65E771E077
:1011B00083E393E00E94A70BBE01C8010E942D03A8
:1011C00080911703909118030196909318038093D0
:1011D000170310CF1092180310921703DF91CF91CD
:1011E0001F910F91FF90EF90DF90CF90BF90AF9045
:1011F0009F908F9008951F93CF93DF9300D000D0DE
:1012000000D0CDB7DEB710E280913302833409F409
:101210004DC083E393E00E94C2001816190634F40F
:1012200083E393E00E94A000809333028091330215
:10123000843469F15CF4813439F1833429F764E151
:1012400072E083E393E00E943D0CDECF833539F0FA
:101250008735D1F664E670E084E690E004C06AE683
:101260007FEF8AE69FEF0E942D036AEF70E080E037
:1012700090E00E949D0260E070E080E090E00E94BB
:101280002D0310933302C0CF68EF71E002C063EE0C
:1012900071E0CE0101960E945B0BCE0101960E9487
:1012A000750589819A810E949E11AECF26960FB650
:1012B000F894DEBF0FBECDBFDF91CF911F9108958F
:1012C0000F931F93CF93DF93CDB7DEB727970FB65A
:1012D000F894DEBF0FBECDBF8C0186E0E0E1F1E007
:1012E000DE01119601900D928A95E1F7D8011396CF
:1012F0001C921E92129715961C921E921497179686
:101300001C921E92169719961C921E92189786E0B0
:101310001C968C931C971A968D919C911B97892BE8
:1013200011F080E00CC086E090E06F830E9409110C
:10133000F801938782876F81892B99F718C0F8018C
:101340009485891798F4282F30E0D8011A96ED91EA
:10135000FC911B97E20FF31FA1E0B0E0AC0FBD1FA3
:10136000A20FB31F9C9190838F5FE9CF658780EDBB
:1013700097E0D8011F969C938E931E9727960FB6E1
:10138000F894DEBF0FBECDBFDF91CF911F910F91BB
:101390000895CF92DF92EF92FF920F931F93CF9316
:1013A000DF936C017A018B01C0E0D0E0CE15DF0540
:1013B00089F0D8016D918D01D601ED91FC910190DC
:1013C000F081E02DC6010995892B11F47E0102C040
:1013D0002196ECCFC701DF91CF911F910F91FF9024
:1013E000EF90DF90CF900895809139048F3F61F0A6
:1013F00061E00E941F0260E0809139040E94EF01C9
:101400008BE193E00197F1F70895809139048F3FC4
:1014100061F061E00E941F0261E0809139040E9446
:10142000EF018BE193E00197F1F7E0912C04F0914B
:101430002D040190F081E02D67E273E08CE294E0EE
:1014400009950C94F4091092700087E292E0909351
:1014500026038093250310922403109223030C94F7
:101460000206E3E3F3E0A089B18982E08C93A485CE
:10147000B5851C92A685B7858FEC8C93108EA489B8
:10148000B58986E08C93A289B3898C9180618C9315
:10149000A289B3898C9188608C93A289B3898C913D
:1014A00080688C930288F389E02D80818F7D808312
:1014B00008950F931F93E0912204F09123049081EB
:1014C00080911C04892B8083E0911E04F0911F04FD
:1014D000908180911C048095892380838BE090E02B
:1014E0000197F1F7E0911E04F0911F049081809123
:1014F0001C04892B808383E290E00197F1F7E0914F
:101500001E04F0911F04908180911C048095892312
:101510008083E0912204F0912304908180911C0447
:10152000809589238083E0912004F09121049081AB
:1015300080911D04892309F073C00E9478022091D4
:10154000240430912504890120E030E00855194E2B
:101550002F4F3F4FDC01CB01800F911FA21FB31F04
:101560008093260490932704A0932804B093290421
:10157000E0912004F0912104908180911D04892341
:1015800081F40E9478020091260410912704209192
:10159000280430912904061717072807390740F750
:1015A0003FC00E9478022091240430912504DC0180
:1015B000CB01820F931FA11DB11D80932604909330
:1015C0002704A0932804B0932904E0912004F0910B
:1015D0002104908180911D04892381F00E9478026A
:1015E00000912604109127042091280430912904A9
:1015F000061717072807390740F712C00E9478021C
:10160000209124043091250425503109409126046D
:1016100050912704241B350BC901860F971F02C068
:1016200080E090E01F910F9108958F929F92AF926A
:10163000BF92CF92DF92EF92FF926B017C010E94EA
:10164000D7024B015C01C60ED71EE81EF91E0E9490
:10165000D702681579058A059B0528F0C616D706B6
:10166000E806F906A0F7FF90EF90DF90CF90BF90CB
:10167000AF909F908F900895FC0124813581232B9A
:1016800031F421E061157105A1F0FB0108C0FC01F6
:10169000808191816115710531F421E0FC01808127
:1016A000882339F005C00E940E1321E0892B09F030
:1016B00020E0822F0895EF92FF920F931F93CF9314
:1016C000DF93EC01198218821B821A821D821C8210
:1016D00061157105A9F17B01FB0101900020E9F77B
:1016E00031978F01061B170BB8016F5F7F4F80E0AA
:1016F00090E00E943612009759F0998388831B83EB
:101700000A832C813D81232B81F4FC0110820DC0C2
:1017100088819981009711F00E949E111982188288
:101720001D821C821B821A820BC01D830C83B70191
:10173000DF91CF911F910F91FF90EF900C941713B1
:10174000DF91CF911F910F91FF90EF900895611558
:10175000710579F0FB0101900020E9F73197AF01A5
:10176000461B570BDC01ED91FC910280F381E02DCB
:10177000099480E090E008954F925F926F927F927B
:10178000EF92FF920F931F93CF93DF93CDB7DEB706
:10179000A1970FB6F894DEBF0FBECDBF7C01FA0152
:1017A000CB0119A2223008F42AE08E010F5D1F4FF1
:1017B000422E512C612C712CBF01A30192010E9479
:1017C0005110F901CA01015011096A3014F4605D29
:1017D00001C0695CD8016C93232B242B252B61F766
:1017E000B801C7010E94A70BA1960FB6F894DEBFFF
:1017F0000FBECDBFDF91CF911F910F91FF90EF9062
:101800007F906F905F904F900895CF92DF92EF920C
:10181000FF92CF93DF93AB01BC0177FF23C06A0136
:101820007B01E0913303F09134030190F081E02DCE
:101830006DE283E393E00995EC0144275527BA0153
:101840004C195D096E097F092AE083E393E00E9449
:10185000BC0B8C0F9D1FDF91CF91FF90EF90DF901D
:10186000CF9008952AE083E393E0DF91CF91FF903A
:10187000EF90DF90CF900C94BC0B0F931F93CF93FE
:10188000DF93EC010E94A70B8C0165E771E0CE01AC
:101890000E94A70B800F911FDF91CF911F910F9195
:1018A00008950C94A70BCF93DF9300D000D000D005
:1018B000CDB7DEB7789484B5826084BD84B581608D
:1018C00084BD85B5826085BD85B5816085BD80910B
:1018D0006E00816080936E00109281008091810083
:1018E000826080938100809181008160809381007B
:1018F000809180008160809380008091B10084603D
:101900008093B1008091B00081608093B00080919D
:101910007A00846080937A0080917A00826080935C
:101920007A0080917A00816080937A0080917A00B9
:10193000806880937A001092C10010921404109273
:10194000150410921604109217041092D2031092EC
:10195000D3031092D4031092D50368EB7BE080E0B0
:1019600090E00E94150B83E393E09093130480931F
:1019700012040E94310A0E94D7026093D20370932E
:10198000D3038093D4039093D50366E671E08091EE
:101990001204909113040E94510C6AE070E080E000
:1019A00090E00E94150B81E08093E6030E94310ACB
:1019B0000E94590A62E08CE294E00E94600984EF80
:1019C000882E99249394A12CB12C10E292E7792EC1
:1019D0000EE40E94D702672B682B692B41F40E940A
:1019E000D702623071058105910508F405C10E9496
:1019F000D70260934502709346028093470290930A
:101A00004802C0904102D0904202E0904302F09020
:101A100044026C157D058E059F0540F460934102DC
:101A2000709342028093430290934402C09041021B
:101A3000D0904202E0904302F09044029B01AC013E
:101A40002C193D094E095F0969017A013AEFC31665
:101A5000D104E104F10408F4CFC060934102709313
:101A6000420280934302909344028092DE0390925C
:101A7000DF03A092E003B092E1031092E203109220
:101A8000E3031092E4031092E5038091D603909152
:101A9000D703A091D803B091D9038093DA03909330
:101AA000DB03A093DC03B093DD030E94D7026093B5
:101AB000D6037093D7038093D8039093D9030E94E1
:101AC000D7026093D2037093D3038093D40390938F
:101AD000D5030E94D7026B017C0168E771E0809119
:101AE0001204909113040E94510C2AE041E050E04E
:101AF00060E070E080911204909113040E94BC0B8E
:101B00006FE771E080911204909113040E94510CD0
:101B10002AE0B701A60180911204909113040E945B
:101B2000BC0B61E871E080911204909113040E9453
:101B3000510C8091D6039091D703A091D803B09116
:101B4000D903B701A601481B590B6A0B7B0B2AE08E
:101B500080911204909113040E94BC0B61E871E023
:101B600080911204909113040E94510C4091D6036D
:101B70005091D7036091D8037091D9038091DA0313
:101B80009091DB03A091DC03B091DD03481B590B5E
:101B90006A0B7B0B2AE080911204909113040E943F
:101BA000BC0B63E871E080911204909113040E94D1
:101BB000510C0E94D702AB01BC012AE080911204B3
:101BC000909113040E94BC0B65E871E080911204AF
:101BD000909113040E943D0C62E070E080E090E080
:101BE0000E94150B0E94D7026093D6037093D7030F
:101BF0008093D8039093D90383E393E00E94C200BB
:101C00001816190644F483E393E00E94A000809321
:101C100040028093340280913402823509F4EBC093
:101C20003CF48D3409F4DAC08E3409F46CC025C15B
:101C3000883509F414C1823709F01FC168E971E0E1
:101C400083E393E00E943D0C60E070E080E090E070
:101C50000E942D0363EE71E0CE0101960E945B0BA2
:101C6000CE0101960E94D60789819A810E949E1119
:101C70006AE070E080E090E00E949D0268EF71E011
:101C8000CE0101960E945B0BCE0101960E94D60701
:101C900089819A810E949E116AE070E080E090E064
:101CA0000E949D0268EF71E0CE0101960E945B0BDD
:101CB000CE0101960E94D60789819A810E949E11C9
:101CC0006AE070E080E090E00E949D0263EE71E0C7
:101CD000CE0101960E945B0BCE0101960E94D607B1
:101CE00089819A810E949E116AE070E080E090E014
:101CF0000E949D0260E070E080E090E00E942D0371
:101D00001092320266C064E670E084E690E00E94C1
:101D10002D030E94050A8091270390912803813B9F
:101D2000944040F48091310390913203813B944080
:101D300008F4A6C062E370E080E090E00E949D029B
:101D40000E94050A65E070E080E090E00E949D023C
:101D50008091290390912A03813B9440B0F48091B3
:101D60002F0390913003813B944078F480912D03B0
:101D700090912E03813B944040F480912B039091ED
:101D80002C03813B944008F47BC060E070E080E06D
:101D900090E00E942D036AE67FEF8AE69FEF0E94A3
:101DA0002D036AEF70E080E090E00E949D0260E009
:101DB00070E080E090E00E942D034FE068EC70E05E
:101DC0008FE10E94B2056CE871E083E393E00E942A
:101DD000510C0E94FB08009334020AC066EA71E0CD
:101DE00083E393E00E943D0C0E94FB0810933402B1
:101DF0001093330242C060E070E080E090E00E9407
:101E00002D036CEB71E083E393E00E943D0C109393
:101E10003F0280913F02803271F483E393E00E949D
:101E2000C20018161906ACF783E393E00E94A000E5
:101E300080933F02EECF843419F464ED71E002C068
:101E400069EE71E083E393E00E943D0C80913F02D4
:101E5000809333020E94FB08709234020EC060E04F
:101E600070E080E090E00E942D036DEF71E083E36D
:101E700093E00E943D0C109334020E946201A9CDB0
:101E80008091270390912803813B944088F06AE673
:101E90007FEF8AE69FEF0E942D036AEF70E080E0FB
:101EA00090E00E949D026AE67FEF86E990E018C00C
:101EB0008091310390913203813B944008F498CF94
:101EC0006AE67FEF8AE69FEF0E942D036AEF70E0DB
:101ED00080E090E00E949D0266E970E08AE69FEF54
:101EE0000E942D0368EC70E080E090E00E949D026B
:101EF00064E670E084E690E00E942D0379CF8AE5E5
:101F000091E090932D0480932C048091360490915D
:101F10003704009711F00E949E1180913004909137
:101F20003104009711F00E949E1180913404909129
:101F30003504009711F00E949E1180912E0490911B
:101F40002F04009711F00E949E118091320490910D
:101F50003304009711F00C949E110895E3E3F3E02D
:101F60001382128288EE93E0A0E0B0E08483958330
:101F7000A683B78382E491E09183808385EC90E02F
:101F80009587848784EC90E09787868780EC90E043
:101F9000918B808B81EC90E0938B828B82EC90E034
:101FA000958B848B86EC90E0978B868B118E128EAE
:101FB000138E148EE0EDF3E01682178210861186E0
:101FC000128613861486158616861786108A118A3D
:101FD000128A138A148A158AECE2F4E013821282C0
:101FE0001582148217821682118610861386128635
:101FF00080E691E0918380836FEFCF010E946009BA
:10200000E0EBF0E0E491A8E1B4E01496EC931497CF
:10201000E4EBF0E0E4911596EC9315978CE990E0F1
:10202000FC012491E22FF0E0EE0FFF1FE057FF4F7D
:102030002591349117963C932E931697E0EAF0E0A1
:10204000E491F0E0EE0FFF1FEA57FF4F2591349126
:1020500019963C932E931897FC018491E82FF0E099
:10206000EE0FFF1FE458FF4F859194911B969C93B0
:102070008E931A978DE89FE61D969C938E931C97DE
:102080000895DB018F939F930E947310BF91AF91CE
:10209000A29F800D911DA39F900DB29F900D1124C2
:1020A0000895A1E21A2EAA1BBB1BFD010DC0AA1F99
:1020B000BB1FEE1FFF1FA217B307E407F50720F0B1
:1020C000A21BB30BE40BF50B661F771F881F991F2C
:1020D0001A9469F760957095809590959B01AC0175
:1020E000BD01CF0108950E94B510A59F900DB49F2A
:1020F000900DA49F800D911D112408952F923F9261
:102100004F925F926F927F928F929F92AF92BF9207
:10211000CF92DF92EF92FF920F931F93CF93DF93B3
:10212000CDB7DEB7CA1BDB0B0FB6F894DEBF0FBE10
:10213000CDBF09942A88398848885F846E847D845D
:102140008C849B84AA84B984C884DF80EE80FD805F
:102150000C811B81AA81B981CE0FD11D0FB6F894D5
:10216000DEBF0FBECDBFED010895A29FB001B39FAA
:10217000C001A39F700D811D1124911DB29F700D90
:10218000811D1124911D0895991B79E004C0991FA8
:10219000961708F0961B881F7A95C9F780950895C1
:1021A000AA1BBB1B51E107C0AA1FBB1FA617B7077D
:1021B00010F0A61BB70B881F991F5A95A9F7809599
:1021C0009095BC01CD010895052E97FB1EF4009457
:1021D0000E94FB1057FD07D00E94511007FC03D04E
:1021E0004EF40C94FB1050954095309521953F4F3F
:1021F0004F4F5F4F089590958095709561957F4FF3
:102200008F4F9F4F0895EE0FFF1F0590F491E02D23
:102210000994CF93DF938230910510F482E090E02F
:10222000E0913E04F0913F0420E030E0C0E0D0E0D7
:10223000309711F14081518148175907C0F0481774
:10224000590761F482819381209719F09B838A83D7
:102250002BC090933F0480933E0426C02115310586
:1022600019F04217530718F49A01BE01DF01EF017C
:102270000280F381E02DDCCF2115310509F1281B07
:10228000390B2430310590F412968D919C9113975F
:102290006115710521F0FB019383828304C0909343
:1022A0003F0480933E04FD01329644C0FD01E20FDD
:1022B000F31F81939193225031092D933C933AC09F
:1022C00020913C0430913D04232B41F420910C01DA
:1022D00030910D0130933D0420933C0420910A017C
:1022E00030910B012115310541F42DB73EB74091D6
:1022F0000E0150910F01241B350BE0913C04F0912D
:102300003D04E217F307A0F42E1B3F0B28173907F3
:1023100078F0AC014E5F5F4F2417350748F04E0F41
:102320005F1F50933D0440933C048193919302C0FE
:10233000E0E0F0E0CF01DF91CF9108950F931F937C
:10234000CF93DF93009709F48CC0FC01329713827E
:10235000128200913E0410913F040115110581F491
:1023600020813181820F931F20913C0430913D04E4
:102370002817390779F5F0933D04E0933C0471C0C8
:10238000D80140E050E0AE17BF0750F412962D91EF
:102390003C911397AD012115310509F1D901F3CF16
:1023A0009D01DA013383228360817181860F971F3B
:1023B0008217930769F4EC0128813981260F371FB2
:1023C0002E5F3F4F318320838A819B819383828359
:1023D000452B29F4F0933F04E0933E0442C013964A
:1023E000FC93EE931297ED01499159919E01240FB0
:1023F000351FE217F30771F480819181840F951FD7
:10240000029611969C938E938281938113969C934E
:102410008E931297E0E0F0E0D80112968D919C9196
:102420001397009719F0F8018C01F6CF8D919C91CC
:1024300098012E5F3F4F820F931F20913C043091F3
:102440003D042817390769F4309729F410923F04A6
:1024500010923E0402C01382128210933D04009336
:102460003C04DF91CF911F910F910895A0E0B0E05F
:10247000ECE3F2E10C948210EC01009721F4CB0123
:102480000E940911B8C0FC01E60FF71F9C01225001
:102490003109E217F30708F4ACC0D9010D911C9182
:1024A000119706171707B0F00530110508F49FC003
:1024B000C80104978617970708F499C002501109BC
:1024C000061B170B019311936D937C93CF010E9410
:1024D0009E118DC05B01A01AB10A4C01800E911EA5
:1024E000A0913E04B0913F0440E050E0E12CF12C7B
:1024F000109709F44AC0A815B905D1F56D907C90E4
:102500001197630182E0C80ED11CCA14DB0480F16C
:10251000A3014A195B096A0182E0C80ED11C129618
:10252000BC9012971396AC91B5E0CB16D10440F055
:10253000B282A38351834083D9016D937C930AC0F7
:102540000E5F1F4FC301800F911FF901918380839C
:10255000EB2DFA2FE114F10431F0D7011396FC931F
:10256000EE93129744C0F0933F04E0933E043FC0C3
:102570008D919C9111974817590708F4AC017D0182
:1025800012960D90BC91A02DB3CF80913C049091F8
:102590003D0488159905E1F446175707C8F4809162
:1025A0000A0190910B01009741F48DB79EB74091BD
:1025B0000E0150910F01841B950BE817F907C8F421
:1025C000F0933D04E0933C04F901718360830FC0F4
:1025D000CB010E9409117C01009759F0A801BE01AE
:1025E0000E940513CE010E949E11C70104C0CE01B6
:1025F00002C080E090E0CDB7DEB7EEE00C949E1014
:1026000081E090E0F8940C941E13FB01DC0102C001
:1026100001900D9241505040D8F70895FB01DC0124
:102620008D91019080190110D9F3990B0895FB0148
:10263000DC0101900D920020E1F7089510E0C2E660
:10264000D0E004C0FE010E9403112196C336D107D9
:06265000C9F7F894FFCF6A
:10265600010F00F401D007040004000040048000CC
:1026660004110B0E100500000100080020004000B8
:102676008000000100049C01B501CF01EA010702B8
:102686002602470269028E02B502DE020A03000034
:102696000000F900C90991004001C200A000B40081
:1026A60000000000BE04000000006C0100000000F5
:1026B600BE0402000600564D4450565F317C315F21
:1026C600564D4450560D0A00564D4450455F003A4B
:1026D600323A007C005F564D44504500636F726E7F
:1026E6006572466F756E64005363616E6E696E67E0
:1026F60020526F6F6D004D616E75616C204D6F6479
:1027060065204163746976617465640077686963FE
:1027160068207761792069732074686520726F6F0D
:102726006D203F00726F6F6D206973206F6E20748D
:10273600686520726967687400726F6F6D206973CF
:10274600206F6E20746865206C65667400726F6217
:102756006F742053746F7070656400726F6F6D20B4
:1027660000636D00436F6D706C65746520436F6E1A
:102776006669726D6564003E6733323E3E6333328E
:02278600000051
:00000001FF
