:100000000C9463000C948B000C948B000C948B006C
:100010000C948B000C948B000C948B000C948B0034
:100020000C948B000C945D060C948B000C9444088B
:100030000C948B000C948B000C948B000C948B0014
:100040000C94C3050C948B000C9428020C940202AF
:100050000C948B000C948B000C948B000C948B00F4
:100060000C948B000C948B000000000024002700EF
:100070002A0000000000250028002B0000000000DE
:1000800023002600290004040404040404040202DA
:100090000202020203030303030301020408102007
:1000A0004080010204081020010204081020000012
:1000B0000008000201000003040700000000000027
:1000C00000001109240C11241FBECFEFD8E0DEBFC1
:1000D000CDBF12E0A0E0B1E0E6E4FCE102C0059093
:1000E0000D92AE33B107D9F723E0AEE3B2E001C021
:1000F0001D92A538B207E1F710E0C2E6D0E004C0D7
:100100002197FE010E94DE0CC136D107C9F70E947B
:1001100071090C94160E0C940000E6E6F2E0A0893A
:10012000B18982E08C93A485B5851C92A685B7859C
:100130008FEC8C93108EA489B58986E08C93A2896C
:10014000B3898C9180618C93A289B3898C918860EA
:100150008C93A289B3898C9180688C930288F389EF
:10016000E02D80818F7D80830895CF92DF92EF9282
:10017000FF920F931F93CF93DF936C017A018B0152
:10018000C0E0D0E0CE15DF0589F0D8016D918D017A
:10019000D601ED91FC910190F081E02DC601099509
:1001A000892B11F47E0102C02196ECCFC701DF91AB
:1001B000CF911F910F91FF90EF90DF90CF90089516
:1001C000089580E090E00895FC01538D448D252F23
:1001D00030E0842F90E0821B930B541710F0CF96E1
:1001E000089501970895FC01918D828D981761F013
:1001F000828DDF01A80FB11D5D968C91928D9F5F5E
:100200009F73928F90E008958FEF9FEF089586E699
:1002100092E00E94680221E0892B09F420E0822FFD
:10022000089580915102813011F462E001C060E0D4
:10023000809150020E948A048FE090E00197F1F7CC
:10024000089580914C028F3F61F061E00E948A0422
:1002500060E080914C020E945A048BE193E0019788
:10026000F1F70895809150020E94310421E0892B1A
:1002700009F020E081E090915202911180E0822704
:10028000089580915902811105C081E0809359023F
:100290000E9411010E9432018111FCCF6AE070E0DE
:1002A00080E090E00E947D050E9432018111F2CF32
:1002B000089580915902811105C081E0809359020F
:1002C0000E9411010E9432018823E1F36AE070E08C
:1002D00080E090E00E947D050E943201882391F326
:1002E00008956115710579F0FB0101900020E9F78F
:1002F0003197AF01461B570BDC01ED91FC91028059
:10030000F381E02D099480E090E00895CF93DF938E
:10031000BC0186E692E00E947101EC0161E771E0A8
:1003200086E692E00E9471018C0F9D1FDF91CF91B4
:100330000895EF92FF920F931F93CF93DF93EC01F9
:1003400081E0888F9B8D8C8D981305C0E889F98991
:10035000808185FD24C0F62E0B8D10E00F5F1F4FAE
:100360000F731127E02E8C8DE8120CC00FB607FC1E
:10037000FACFE889F989808185FFF5CFCE010E9407
:100380001004F1CF8B8DFE01E80FF11DE35AFF4FF2
:10039000F0820B8FEA89FB898081806207C0EE8939
:1003A000FF896083E889F98980818064808381E0A6
:1003B00090E0DF91CF911F910F91FF90EF90089502
:1003C000CF93DF93EC01888D8823C9F0EA89FB89FC
:1003D000808185FD05C0A889B9898C9186FD0FC0F3
:1003E0000FB607FCF5CF808185FFF2CFA889B989C8
:1003F0008C9185FFEDCFCE010E941004E7CFDF91F5
:10040000CF9108951F920F920FB60F9211242F9340
:100410003F934F935F936F937F938F939F93AF938C
:10042000BF93EF93FF9386E692E00E941004FF9142
:10043000EF91BF91AF919F918F917F916F915F915C
:100440004F913F912F910F900FBE0F901F901895D5
:100450001F920F920FB60F9211242F938F939F9399
:10046000EF93FF93E0917602F09177028081E09123
:100470007C02F0917D0282FD12C0908180917F020A
:100480008F5F8F7320918002821751F0E0917F027D
:10049000F0E0EA59FD4F958F80937F0201C0808183
:1004A000FF91EF919F918F912F910F900FBE0F9021
:1004B0001F901895FC01918D828D981731F0828DD7
:1004C000E80FF11D858D90E008958FEF9FEF08955F
:1004D000FC01918D228D892F90E0805C9F4F821BC3
:1004E00091098F739927089580E090E0892B29F076
:1004F0000E94070181110C9400000895833081F05F
:1005000028F4813099F08230A1F008958730A9F065
:100510008830B9F08430D1F4809180008F7D03C0A1
:10052000809180008F7780938000089584B58F77C5
:1005300002C084B58F7D84BD08958091B0008F770F
:1005400003C08091B0008F7D8093B00008953FB7C5
:10055000F89480917D0390917E03A0917F03B091E8
:10056000800326B5A89B05C02F3F19F00196A11D59
:10057000B11D3FBFBA2FA92F982F8827820F911D39
:10058000A11DB11DBC01CD0142E0660F771F881F80
:10059000991F4A95D1F7089520917503909176039C
:1005A000422F592FE22FF92F81913FEB380F3A312B
:1005B00030F42093750390937603805E0895803223
:1005C00021F42E2F9F2F452B59F7209375039093DD
:1005D000760308951F93CF93DF930E94CC02C0E06F
:1005E000D0E01AE090ED980F9A30B8F41C9F90017B
:1005F0001D9F300D1124E901C80FD11D87FDDA952B
:10060000E09780917503909176030196909376031D
:10061000809375030E94CC02E5CFCE01DF91CF918C
:100620001F9108952F923F924F925F926F927F9207
:100630008F929F92AF92BF92CF92DF92EF92FF92F2
:100640000F931F93CF93DF9300D000D01F92CDB7AD
:10065000DEB79D838C837A8369834B838091720399
:10066000811112C081E0809372031092700081E2C8
:100670008093B0008BE08093B1008AEF8093B30049
:100680001092B400539A7894109209012C813D8104
:1006900037FF06C03F773D832C834AE0342E02C0EB
:1006A0003324339488E2389E802D112490E0EC812D
:1006B000FD81E817F90708F4AEC0F1E03F1209C068
:1006C0002C813D812131374220F0E0E1F7E2FD83CA
:1006D000EC83C32CD12CE12CF12C8C819D8196953F
:1006E00087952C01612C712C2C813D814901A12C15
:1006F000B12CA701960160E472E48FE090E00E94C3
:10070000530C640D751D861D971DA50194010E9453
:10071000850C890132E0232E0F3F110501F1F8F01D
:100720002394E22DF0E0EE0FFF1FEE5AFE4F2081E2
:10073000318140E050E060E072E18AE790E00E94A1
:10074000850CC701B6010E94530C640D751D861DF2
:10075000971DA50194010E94850C8901DDCF3AE027
:10076000331209C08C819D8105966AE070E00E9479
:10077000CA0C7D836C838C819D81883EE3E09E075B
:1007800069F029813A81DC010E94AF0C28EE33E048
:1007900040E050E00E94850C3A832983109270005B
:1007A0008091B100887F282A2092B1000093B30085
:1007B0002B81203108F02FE080E190E0821B91092D
:1007C00002C0169507958A95E2F70093B400298137
:1007D0003A81309374032093730387B38FEF87BB01
:1007E00081E0809370000F900F900F900F900F900A
:1007F000DF91CF911F910F91FF90EF90DF90CF90FD
:10080000BF90AF909F908F907F906F905F904F9030
:100810003F902F9008959D838C835BCF0E94110E93
:10082000FC01848DDF01A80FB11DA35ABF4F2C918D
:10083000848D90E001968F739927848FA689B7895C
:100840002C93A089B1898C9180648C93938D848D35
:10085000981306C00288F389E02D80818F7D808304
:100860000895CF93DF93282F30E0F901E255FF4F31
:100870008491F901E656FF4FD491F901EA57FF4FF1
:10088000C491CC2391F081110E947E02EC2FF0E004
:10089000EE0FFF1FE458FF4FA591B491EC91ED23AB
:1008A00081E090E021F480E002C080E090E0DF9100
:1008B000CF9108951F93CF93DF93282F30E0F90154
:1008C000E255FF4F8491F901E656FF4FD491F901AB
:1008D000EA57FF4FC491CC23C9F0162F81110E9413
:1008E0007E02EC2FF0E0EE0FFF1FEE58FF4FA591B8
:1008F000B4918FB7F894111105C09C91ED2FE0953C
:10090000E92302C0EC91ED2BEC938FBFDF91CF91E7
:100910001F910895CF93DF9390E0FC01E656FF4FBF
:100920002491FC01EA57FF4F8491882361F190E004
:10093000880F991FFC01E859FF4FC591D491FC0124
:10094000EE58FF4FA591B491611109C09FB7F8947B
:100950008881209582238883EC912E230BC06230FE
:1009600061F49FB7F8943881822F80958323888320
:10097000EC912E2B2C939FBF06C08FB7F894E88183
:100980002E2B28838FBFDF91CF91089561E08AE0FD
:100990000E948A0461E089E00E948A0461E088E0A4
:1009A0000E948A0461E087E00E948A0480EA8093C2
:1009B000800081E18093810080E991E0909387003D
:1009C0008093860008957F928F929F92AF92BF92FC
:1009D000CF92DF92EF92FF920F931F93CF93DF930B
:1009E000FC0122853385232B09F479C07B01EC01BE
:1009F000D12C8C85D816F0F40D2D10E08E859F85B6
:100A0000F801EE0FFF1FEE0DFF1D91838083EA8535
:100A1000FB85E00FF11F61E080810E945A048A8506
:100A20009B85FC01E00FF11F61E080810E948A0438
:100A3000D394DFCF83E290E00197F1F710E08C854B
:100A40001817A8F4C12ED12CEA85FB85EC0DFD1DED
:100A500060E080810E948A048A859B85FC01EC0D00
:100A6000FD1D60E080810E945A041F5FE8CF0E9454
:100A7000A7024B015C010E94A702AB01BC0148190F
:100A800059096A097B098E859F85A0E0B0E0481767
:100A900059076A077B0718F50E94A7026B01C8185F
:100AA000D908712C8C85781630F7072D10E0EA856F
:100AB000FB85E00FF11F80810E943104892B51F4E6
:100AC000000F111FF701E00FF11F80819181C816FF
:100AD000D90610F07394E6CFD182C082FBCFDF91AC
:100AE000CF911F910F91FF90EF90DF90CF90BF902B
:100AF000AF909F908F907F9008958F929F92AF922A
:100B0000BF92CF92DF92EF92FF926B017C010E9425
:100B1000A7024B015C01C114D104E104F104F1F01E
:100B20000E94A702DC01CB0188199909AA09BB0917
:100B3000883E9340A105B10570F321E0C21AD108A7
:100B4000E108F10888EE880E83E0981EA11CB11C14
:100B5000C114D104E104F10419F7DDCFFF90EF9047
:100B6000DF90CF90BF90AF909F908F9008952FB758
:100B7000F8946091790370917A0380917B0390914E
:100B80007C032FBF08951F920F920FB60F9211246E
:100B90002F933F938F939F93AF93BF93809179034C
:100BA00090917A03A0917B03B0917C0330917803FC
:100BB00023E0230F2D3720F40196A11DB11D05C0A0
:100BC00026E8230F0296A11DB11D20937803809380
:100BD000790390937A03A0937B03B0937C03809175
:100BE0007D0390917E03A0917F03B09180030196D5
:100BF000A11DB11D80937D0390937E03A0937F037D
:100C0000B0938003BF91AF919F918F913F912F91AE
:100C10000F900FBE0F901F901895CF93DF93EC01AC
:100C200080917703811105C081E0809377030E9452
:100C3000C604D7FF05C0D195C195D10981E001C097
:100C400080E0C13991E0D90714F0C0E9D1E0D09338
:100C50008900C0938800882311F061E001C060E042
:100C600087E0DF91CF910C945A04CF93DF93EC018E
:100C700080917703811105C081E0809377030E9402
:100C8000C604D7FF05C0D195C195D10981E001C047
:100C900080E0C13991E0D90714F0C0E9D1E0D093E8
:100CA0008B00C0938A00882311F061E001C060E0EE
:100CB00088E0DF91CF910C945A041F920F920FB6E7
:100CC0000F9211246F927F928F929F92AF92BF9258
:100CD000CF92DF92EF92FF920F931F932F933F9348
:100CE0004F935F936F937F938F939F93AF93BF9334
:100CF000CF93DF93EF93FF938091730390917403ED
:100D00009C01215031093093740320937303892B84
:100D100009F09BC11092700078948091B100887F97
:100D200083608093B1008AEF8093B3001092B40087
:100D300081E0809309018091750390917603892B5E
:100D400009F483C19090080180917103882321F0F8
:100D500060917003611116C077247394F0ECAF2E8C
:100D6000FDE5BF2EAAE06A2EB4E08B2EC0EDCC2E9E
:100D7000C7E0DC2ED4E0ED2EF12C04EF11E0CFE043
:100D8000D0E015C070E040E088EE93E00E941203CE
:100D9000109270035AC18636D4F5813609F4A8C082
:100DA0007CF58C3309F460C08E3381F493940E94F7
:100DB000CC0220917503309176032F5F3F4F309323
:100DC000760320937503853631F752C0813209F0DE
:100DD0008AC080920801D0920501C0920401F0926D
:100DE0000701E09206011093030100930201D093E2
:100DF0000101C093000110927103E4E09E2ED7CF51
:100E00008336A1F10CF477C000E022E076C08D3685
:100E1000C1F194F4873691F174F18C3609F063C016
:100E20000E94EA02BC019093070180930601809121
:100E300004019091050150C08237C1F14CF48F3606
:100E400009F051C00E94EA02982E80930801AFCFAA
:100E5000843779F1863709F046C00E94EA02909300
:100E6000010180930001A3CF9A94A1CF00E01FC09D
:100E700000E024E042C000E025E03FC000E027E0C1
:100E80003CC00E94CC028C3619F41092710304C04D
:100E900070927103109270038091750390917603A4
:100EA0000196909376038093750381CF01E020E053
:100EB00024C00E94EA02BC01C5010E94CA0C669EC1
:100EC000C001679E900D1124909305018093040149
:100ED00060910601709107010E94CA0C7093030192
:100EE0006093020164CF1092760310927503ADC037
:100EF00000E029E002C000E02BE0122F3CE0939ECE
:100F0000100D11240E94CC02982F977F933259F430
:100F10008091750390917603019690937603809368
:100F200075031F5FEFCF8D3269F480917503909147
:100F300076030196909376038093750311500E9477
:100F4000CC02F1CFC0910201D091030181538830CE
:100F500058F4C0910401D09105010E94EA02BC013D
:100F6000CE010E94CA0CEB017E01F694E7940E9428
:100F7000CC028E3261F480917503909176030196D4
:100F80009093760380937503CE0DDF1DEECF809195
:100F90007103882339F0CE0196958795809370036D
:100FA000C81BD10940910001011104C01F3F11F07D
:100FB000411105C040E0BE0188EE93E044C011310C
:100FC00030F020EF210F203618F02FE501C020E08F
:100FD000822F6CE00E94BE0C582F34EF3503B00115
:100FE0001124FB01E20FF11D9F013C9740F4220FF9
:100FF000331FF901E65CFE4F2081318102C020E001
:1010000030E0873081F0082E02C0220F331F0A948F
:10101000E2F7823028F0C90105966AE070E00CC062
:10102000C90190580CC0C90126E0880F991F2A9564
:10103000E1F7029665E070E00E94CA0CCB014031F6
:1010400008F04FE0BE010E941203FF91EF91DF9183
:10105000CF91BF91AF919F918F917F916F915F9150
:101060004F913F912F911F910F91FF90EF90DF9043
:10107000CF90BF90AF909F908F907F906F900F9088
:101080000FBE0F901F9018951F920F920FB60F92E0
:1010900011242F933F938F939F93EF93FF9380910E
:1010A0006F0387FF05C0109285001092840005C071
:1010B00080916F0387FD80916F0380916F038F5F35
:1010C00080936F0380916F0387FF20C080916F032F
:1010D0008C30E4F4209184003091850080916F037E
:1010E000082E000C990BFC01EE0FFF1F8E0F9F1FA7
:1010F000FC01E55BFC4F81819281820F931F9093ED
:1011000089008093880080916F0317C080918400CC
:1011100090918500049680349C4918F480E49CE901
:1011200005C0809184009091850004969093890079
:10113000809388008FEF80936F03FF91EF919F91D1
:101140008F913F912F910F900FBE0F901F90189588
:101150000F931F93CF93DF93CDB7DEB727970FB6CB
:10116000F894DEBF0FBECDBF8C0186E0E4E3F1E072
:10117000DE01119601900D928A95E1F7D801139640
:101180001C921E92129715961C921E9214971796F7
:101190001C921E92169719961C921E92189786E022
:1011A0001C968C931C971A968D919C911B97892B5A
:1011B00011F080E00CC086E090E06F830E94E40CA8
:1011C000F801938782876F81892B99F718C0F801FE
:1011D0009485891798F4282F30E0D8011A96ED915C
:1011E000FC911B97E20FF31FA1E0B0E0AC0FBD1F15
:1011F000A20FB31F9C9190838F5FE9CF658780ED2D
:1012000097E0D8011F969C938E931E9727960FB652
:10121000F894DEBF0FBECDBFDF91CF911F910F912C
:101220000895E6E6F2E01382128288EE93E0A0E0F1
:10123000B0E084839583A683B78384E191E09183B2
:10124000808385EC90E09587848784EC90E0978795
:10125000868780EC90E0918B808B81EC90E0938B83
:10126000828B82EC90E0958B848B86EC90E0978B60
:10127000868B118E128E138E148EE3E0F3E01682AD
:101280001782108611861286138614861586168696
:101290001786108A118A128A138A148A158AE0E541
:1012A000F2E08CE0808381E0818382831382148268
:1012B00016821582108617821186EFE3F2E0138200
:1012C0001282158214821782168211861086138666
:1012D000128682E391E0918380836FEFCF010C94BB
:1012E000A808CF93DF93CDB7DEB7C056D1090FB6AC
:1012F000F894DEBF0FBECDBF789484B5826084BD04
:1013000084B5816084BD85B5826085BD85B5816009
:1013100085BD80916E00816080936E001092810087
:101320008091810082608093810080918100816042
:101330008093810080918000816080938000809103
:10134000B10084608093B1008091B000816080938F
:10135000B00080917A00846080937A0080917A0056
:10136000826080937A0080917A00816080937A0015
:1013700080917A00806880937A001092C100109268
:101380004703109248031092490310924A031092A7
:1013900005031092060310920703109208030E949F
:1013A000B7056B017C014B015C0128EB820E2BE041
:1013B000921EA11CB11C0E94B7056C157D058E05FF
:1013C0009F0528F086169706A806B906A0F786E6B8
:1013D00092E090934603809345030E948D000E9403
:1013E000B7056093050370930603809307039093FA
:1013F000080362E671E080914503909146030E94E4
:1014000071010E94B7056B017C014B015C013AE060
:10141000830E911CA11CB11C0E94B7056C157D05A3
:101420008E059F0528F086169706A806B906A0F730
:1014300081E0809319030E948D0084E791E00E946F
:1014400086010E9459010E94410162E08FE392E00F
:101450000E94A80864EF71E080E090E00E947D05A2
:1014600061E08DE00E948A0461E08DE00E945A04F0
:101470000E94B7056B017C014BE1442E43E0542EE2
:101480000E94B705DC01CB018C199D09AE09BF098B
:1014900088389341A105B10508F0F1C08AE69FEFB5
:1014A0000E94350686E990E00E940D0664EC79E022
:1014B00080E090E00E947D0586E990E00E9435067C
:1014C0008AE69FEF0E940D0664EC79E080E090E0F0
:1014D0000E947D058091430290914402892B39F04E
:1014E0008091410290914202892BD1F41CC000915D
:1014F0004B0210E0C801880F991F0E94E40C9093E2
:10150000440280934302009709F4BACFFC0180E0C3
:1015100090E08017910724F7119211920196F9CF6C
:1015200000E010E01DC000914B0210E0C801880FE0
:10153000991F0E94E40C909342028093410200970D
:1015400009F49ECF20914D0230914E02FC0180E0C3
:1015500090E08017910724F7219331930196F9CFFA
:1015600080914C028F3F59F061E00E948A0461E053
:1015700080914C020E945A04C2010197F1F7E09158
:101580003F02F09140020190F081E02DBE016F5BBF
:101590007F4F8FE392E009950E94210160904B02FA
:1015A000712CCE0101964C01FE01EF5BFF4FDE0175
:1015B00091965D01CD01140120E030E0261537053C
:1015C0004CF50115110589F0DC016D917C9140818C
:1015D00051816417750748F0D1016D917C9140816C
:1015E00051814617570748F00DC040815181DC01F9
:1015F0004D935C930115110579F740815181D1011B
:101600004D935C932F5F3F4FB2E02B0E311C32960F
:101610000296D4CF0F5F1F4F0A30110509F0A0CFFB
:101620006091410270914202A0914302B091440244
:1016300080E090E020914B0230E0821793070CF09D
:101640001FCFF401219131914F014D915C91119780
:101650004217530718F411963C932E93F5012191EC
:1016600031915F01FB01408151812417350710F44E
:101670003183208301966E5F7F4F1296DBCF80E02F
:1016800090E00E94350680E090E00E940D0662E046
:1016900070E080E090E00E947D0560E08DE00E94B7
:1016A0005A0461E08DE00E948A0483E991E00E947F
:1016B00086010E9459010E94410186EC91E00E943E
:1016C00086010BE113E080914C028F3F59F061E0FD
:1016D0000E948A0461E080914C020E945A04C80171
:1016E0000197F1F7E0913F02F09140020190F08103
:1016F000E02D6AE572E08FE392E009950E942101F6
:1017000080915A0290915B02853F9140D8F08CE91C
:101710009FEF0E9435068CE99FEF0E940D066AEF4D
:1017200070E080E090E00E947D0586E990E00E94F4
:10173000350686E990E00E940D0684EE91E00E9455
:1017400086012AC08091640290916502853F914094
:10175000F0F686E990E00E94350686E990E00E9466
:101760000D06B1CF86E692E00E94F300873569F15D
:1017700004F5843409F44AC0BCF4813489F180E072
:1017800090E00E94350680E090E00E940D0660E047
:1017900070E0CB010E947D0586E692E00E9468021F
:1017A00018161906FCF2EBCF8135D9F1833519F102
:1017B000E6CF8137B1F12CF4813691F0843631F1E6
:1017C000DECF8337C1F08737D1F661E08DE00E942C
:1017D0005A0486E990E00E94350686E990E02BC025
:1017E00061E08DE00E945A0486E09FEF0E9435067A
:1017F0008AEF90E020C061E08DE00E945A048CE9FD
:101800009FEF0E9435068CE99FEF15C061E08DE0E7
:101810000E945A048AEF90E00E94350686E09FEF0E
:101820000AC061E08DE00E945A0480E090E00E94CE
:10183000350680E090E00E940D066AEF70E080E0DF
:1018400090E00E947D059BCF8CE291E09093400256
:1018500080933F028091490290914A02009711F0D3
:101860000E94790D8091430290914402009711F0FB
:101870000E94790D8091470290914802009711F0E3
:101880000E94790D8091410290914202009711F0DF
:101890000E94790D8091450290914602009711F0C7
:1018A0000C94790D0895DB018F939F930E94A40CF3
:1018B000BF91AF91A29F800D911DA39F900DB29FEC
:1018C000900D11240895A1E21A2EAA1BBB1BFD0145
:1018D0000DC0AA1FBB1FEE1FFF1FA217B307E4070F
:1018E000F50720F0A21BB30BE40BF50B661F771F67
:1018F000881F991F1A9469F7609570958095909547
:101900009B01AC01BD01CF010895052E97FB1EF48C
:1019100000940E949C0C57FD07D00E94630C07FCAA
:1019200003D04EF40C949C0C509540953095219525
:101930003F4F4F4F5F4F08959095809570956195FB
:101940007F4F8F4F9F4F08950E94AF0CA59F900D22
:10195000B49F900DA49F800D911D11240895A29F06
:10196000B001B39FC001A39F700D811D1124911D73
:10197000B29F700D811D1124911D0895991B79E06E
:1019800004C0991F961708F0961B881F7A95C9F70F
:1019900080950895AA1BBB1B51E107C0AA1FBB1F5E
:1019A000A617B70710F0A61BB70B881F991F5A95EB
:1019B000A9F780959095BC01CD010895EE0FFF1F0A
:1019C0000590F491E02D0994CF93DF938230910537
:1019D00010F482E090E0E0918303F091840320E032
:1019E00030E0C0E0D0E0309711F1408151814817DC
:1019F0005907C0F04817590761F4828193812097F5
:101A000019F09B838A832BC0909384038093830374
:101A100026C02115310519F04217530718F49A0111
:101A2000BE01DF01EF010280F381E02DDCCF211543
:101A3000310509F1281B390B2430310590F4129639
:101A40008D919C9113976115710521F0FB01938392
:101A5000828304C09093840380938303FD013296B4
:101A600044C0FD01E20FF31F81939193225031098D
:101A70002D933C933AC02091810330918203232B14
:101A800041F420910C0130910D0130938203209399
:101A9000810320910A0130910B012115310541F498
:101AA0002DB73EB740910E0150910F01241B350B0D
:101AB000E0918103F0918203E217F307A0F42E1B5B
:101AC0003F0B2817390778F0AC014E5F5F4F2417A2
:101AD000350748F04E0F5F1F5093820340938103F8
:101AE0008193919302C0E0E0F0E0CF01DF91CF91CC
:101AF00008950F931F93CF93DF93009709F48CC041
:101B0000FC013297138212820091830310918403A7
:101B10000115110581F420813181820F931F2091DD
:101B20008103309182032817390779F5F0938203F6
:101B3000E093810371C0D80140E050E0AE17BF07C9
:101B400050F412962D913C911397AD01211531055A
:101B500009F1D901F3CF9D01DA013383228360813A
:101B60007181860F971F8217930769F4EC01288112
:101B70003981260F371F2E5F3F4F318320838A81A3
:101B80009B8193838283452B29F4F0938403E09314
:101B9000830342C01396FC93EE931297ED01499193
:101BA00059919E01240F351FE217F30771F48081CC
:101BB0009181840F951F029611969C938E9382813A
:101BC000938113969C938E931297E0E0F0E0D801F6
:101BD00012968D919C911397009719F0F8018C0142
:101BE000F6CF8D919C9198012E5F3F4F820F931FEE
:101BF00020918103309182032817390769F43097C7
:101C000029F4109284031092830302C0138212827B
:101C10001093820300938103DF91CF911F910F9165
:101C2000089581E090E0F8940C94160E10E0C2E65E
:101C3000D0E004C0FE010E94DE0C2196C336D1071D
:061C4000C9F7F894FFCF84
:101C46000F00F401D00704000401000085038000A2
:101C5600000000009901B500E400E0016802F3000D
:101C66005A0200000000E304000000000E04000019
:101C76000000E30404110B0E10059C01B501CF0111
:101C8600EA0107022602470269028E02B502DE0257
:101C96000A03000001000800200040008000000147
:101CA6000004564D4450565F317C315F564D4450CA
:101CB600560D0A00507265737320627574746F6EE8
:101CC60020666F722043616C6C6962726174696F21
:101CD6006E2100507574207A756D6F2061742074C2
:101CE60068652073746172742C20616E6420707252
:101CF60065737320627574746F6E20746F206265ED
:101D060067696E2121004175746F6D617469632086
:101D16006E617669676174696F6E2073746172743F
:101D260065642E0049277665206869742061206302
:101D36006F726E657221204D616E75616C204E6109
:101D46007669676174696F6E20496E69746961743A
:101D560065642E2050726573732027436F6D706C17
:101D660065746527207768656E2049276D20626156
:0E1D7600636B206F6E20726F7574652E000017
:00000001FF
